{
  "contractName": "KryptoBirdz",
  "abi": [
    {
      "inputs": [],
      "stateMutability": "nonpayable",
      "type": "constructor"
    },
    {
      "anonymous": false,
      "inputs": [
        {
          "indexed": true,
          "internalType": "address",
          "name": "_owner",
          "type": "address"
        },
        {
          "indexed": true,
          "internalType": "address",
          "name": "_approved",
          "type": "address"
        },
        {
          "indexed": true,
          "internalType": "uint256",
          "name": "_tokenId",
          "type": "uint256"
        }
      ],
      "name": "Approval",
      "type": "event"
    },
    {
      "anonymous": false,
      "inputs": [
        {
          "indexed": true,
          "internalType": "address",
          "name": "_from",
          "type": "address"
        },
        {
          "indexed": true,
          "internalType": "address",
          "name": "_to",
          "type": "address"
        },
        {
          "indexed": true,
          "internalType": "uint256",
          "name": "_tokenId",
          "type": "uint256"
        }
      ],
      "name": "Transfer",
      "type": "event"
    },
    {
      "inputs": [
        {
          "internalType": "address",
          "name": "_to",
          "type": "address"
        },
        {
          "internalType": "uint256",
          "name": "_tokenId",
          "type": "uint256"
        }
      ],
      "name": "approve",
      "outputs": [],
      "stateMutability": "nonpayable",
      "type": "function"
    },
    {
      "inputs": [
        {
          "internalType": "address",
          "name": "_owner",
          "type": "address"
        }
      ],
      "name": "balanceOf",
      "outputs": [
        {
          "internalType": "uint256",
          "name": "",
          "type": "uint256"
        }
      ],
      "stateMutability": "view",
      "type": "function"
    },
    {
      "inputs": [
        {
          "internalType": "uint256",
          "name": "",
          "type": "uint256"
        }
      ],
      "name": "krytoBirds",
      "outputs": [
        {
          "internalType": "string",
          "name": "",
          "type": "string"
        }
      ],
      "stateMutability": "view",
      "type": "function"
    },
    {
      "inputs": [],
      "name": "name",
      "outputs": [
        {
          "internalType": "string",
          "name": "",
          "type": "string"
        }
      ],
      "stateMutability": "view",
      "type": "function"
    },
    {
      "inputs": [
        {
          "internalType": "uint256",
          "name": "_tokenId",
          "type": "uint256"
        }
      ],
      "name": "ownerOf",
      "outputs": [
        {
          "internalType": "address",
          "name": "",
          "type": "address"
        }
      ],
      "stateMutability": "view",
      "type": "function"
    },
    {
      "inputs": [
        {
          "internalType": "bytes4",
          "name": "interfaceID",
          "type": "bytes4"
        }
      ],
      "name": "supportsInterface",
      "outputs": [
        {
          "internalType": "bool",
          "name": "",
          "type": "bool"
        }
      ],
      "stateMutability": "view",
      "type": "function"
    },
    {
      "inputs": [],
      "name": "symbol",
      "outputs": [
        {
          "internalType": "string",
          "name": "",
          "type": "string"
        }
      ],
      "stateMutability": "view",
      "type": "function"
    },
    {
      "inputs": [
        {
          "internalType": "uint256",
          "name": "_index",
          "type": "uint256"
        }
      ],
      "name": "tokenByIndex",
      "outputs": [
        {
          "internalType": "uint256",
          "name": "",
          "type": "uint256"
        }
      ],
      "stateMutability": "view",
      "type": "function"
    },
    {
      "inputs": [
        {
          "internalType": "address",
          "name": "_owner",
          "type": "address"
        },
        {
          "internalType": "uint256",
          "name": "_index",
          "type": "uint256"
        }
      ],
      "name": "tokenOfOwnerByIndex",
      "outputs": [
        {
          "internalType": "uint256",
          "name": "",
          "type": "uint256"
        }
      ],
      "stateMutability": "view",
      "type": "function"
    },
    {
      "inputs": [],
      "name": "totalSupply",
      "outputs": [
        {
          "internalType": "uint256",
          "name": "",
          "type": "uint256"
        }
      ],
      "stateMutability": "view",
      "type": "function"
    },
    {
      "inputs": [
        {
          "internalType": "address",
          "name": "from",
          "type": "address"
        },
        {
          "internalType": "address",
          "name": "to",
          "type": "address"
        },
        {
          "internalType": "uint256",
          "name": "tokenId",
          "type": "uint256"
        }
      ],
      "name": "transferFrom",
      "outputs": [],
      "stateMutability": "payable",
      "type": "function"
    },
    {
      "inputs": [
        {
          "internalType": "string",
          "name": "_kryptoBird",
          "type": "string"
        }
      ],
      "name": "mint",
      "outputs": [],
      "stateMutability": "nonpayable",
      "type": "function"
    }
  ],
  "bytecode": "0x60806040523480156200001157600080fd5b506040518060400160405280600b81526020017f4b727970746f426972647a0000000000000000000000000000000000000000008152506040518060400160405280600581526020017f4b424952440000000000000000000000000000000000000000000000000000008152508181816000908051906020019062000098929190620001c6565b508060019080519060200190620000b1929190620001c6565b505050620000e57f01ffc9a7a5cef8baa21ed3c5c0d7e23accb804b619e9333b597f47a0d84076e2620000ed60201b60201c565b505062000384565b63ffffffff60e01b817bffffffffffffffffffffffffffffffffffffffffffffffffffffffff1916141562000159576040517f08c379a00000000000000000000000000000000000000000000000000000000081526004016200015090620002fd565b60405180910390fd5b600160026000837bffffffffffffffffffffffffffffffffffffffffffffffffffffffff19167bffffffffffffffffffffffffffffffffffffffffffffffffffffffff1916815260200190815260200160002060006101000a81548160ff02191690831515021790555050565b828054620001d4906200034e565b90600052602060002090601f016020900481019282620001f8576000855562000244565b82601f106200021357805160ff191683800117855562000244565b8280016001018555821562000244579182015b828111156200024357825182559160200191906001019062000226565b5b50905062000253919062000257565b5090565b5b808211156200027257600081600090555060010162000258565b5090565b600082825260208201905092915050565b7f4552524f52204552433136353a20696e76616c696420696e746572666163652060008201527f6964000000000000000000000000000000000000000000000000000000000000602082015250565b6000620002e560228362000276565b9150620002f28262000287565b604082019050919050565b600060208201905081810360008301526200031881620002d6565b9050919050565b7f4e487b7100000000000000000000000000000000000000000000000000000000600052602260045260246000fd5b600060028204905060018216806200036757607f821691505b602082108114156200037e576200037d6200031f565b5b50919050565b611db980620003946000396000f3fe6080604052600436106100a75760003560e01c80634f6ccce7116100645780634f6ccce7146101c15780636352211e146101fe57806370a082311461023b57806380260b121461027857806395d89b41146102b5578063d85d3d27146102e0576100a7565b806301ffc9a7146100ac57806306fdde03146100e9578063095ea7b31461011457806318160ddd1461013d57806323b872dd146101685780632f745c5914610184575b600080fd5b3480156100b857600080fd5b506100d360048036038101906100ce91906111a8565b610309565b6040516100e091906111f0565b60405180910390f35b3480156100f557600080fd5b506100fe610371565b60405161010b91906112a4565b60405180910390f35b34801561012057600080fd5b5061013b6004803603810190610136919061135a565b610403565b005b34801561014957600080fd5b5061015261059f565b60405161015f91906113a9565b60405180910390f35b610182600480360381019061017d91906113c4565b6105ac565b005b34801561019057600080fd5b506101ab60048036038101906101a6919061135a565b6105bc565b6040516101b891906113a9565b60405180910390f35b3480156101cd57600080fd5b506101e860048036038101906101e39190611417565b61066c565b6040516101f591906113a9565b60405180910390f35b34801561020a57600080fd5b5061022560048036038101906102209190611417565b6106dd565b6040516102329190611453565b60405180910390f35b34801561024757600080fd5b50610262600480360381019061025d919061146e565b61078f565b60405161026f91906113a9565b60405180910390f35b34801561028457600080fd5b5061029f600480360381019061029a9190611417565b610847565b6040516102ac91906112a4565b60405180910390f35b3480156102c157600080fd5b506102ca6108f3565b6040516102d791906112a4565b60405180910390f35b3480156102ec57600080fd5b50610307600480360381019061030291906115d0565b610985565b005b600060026000837bffffffffffffffffffffffffffffffffffffffffffffffffffffffff19167bffffffffffffffffffffffffffffffffffffffffffffffffffffffff1916815260200190815260200160002060009054906101000a900460ff169050919050565b60606000805461038090611648565b80601f01602080910402602001604051908101604052809291908181526020018280546103ac90611648565b80156103f95780601f106103ce576101008083540402835291602001916103f9565b820191906000526020600020905b8154815290600101906020018083116103dc57829003601f168201915b5050505050905090565b600061040e826106dd565b90508273ffffffffffffffffffffffffffffffffffffffff168173ffffffffffffffffffffffffffffffffffffffff16141561047f576040517f08c379a0000000000000000000000000000000000000000000000000000000008152600401610476906116ec565b60405180910390fd5b8073ffffffffffffffffffffffffffffffffffffffff163373ffffffffffffffffffffffffffffffffffffffff16146104ed576040517f08c379a00000000000000000000000000000000000000000000000000000000081526004016104e49061177e565b60405180910390fd5b826005600084815260200190815260200160002060006101000a81548173ffffffffffffffffffffffffffffffffffffffff021916908373ffffffffffffffffffffffffffffffffffffffff160217905550818373ffffffffffffffffffffffffffffffffffffffff168273ffffffffffffffffffffffffffffffffffffffff167f8c5be1e5ebec7d5bd14f71427d1e84f3dd0314c0f7b2291e5b200ac8c7c3b92560405160405180910390a4505050565b6000600680549050905090565b6105b7838383610a88565b505050565b60006105c78361078f565b8210610608576040517f08c379a00000000000000000000000000000000000000000000000000000000081526004016105ff906117ea565b60405180910390fd5b600860008473ffffffffffffffffffffffffffffffffffffffff1673ffffffffffffffffffffffffffffffffffffffff16815260200190815260200160002082815481106106595761065861180a565b5b9060005260206000200154905092915050565b600061067661059f565b82106106b7576040517f08c379a00000000000000000000000000000000000000000000000000000000081526004016106ae90611885565b60405180910390fd5b600682815481106106cb576106ca61180a565b5b90600052602060002001549050919050565b6000806003600084815260200190815260200160002060009054906101000a900473ffffffffffffffffffffffffffffffffffffffff169050600073ffffffffffffffffffffffffffffffffffffffff168173ffffffffffffffffffffffffffffffffffffffff161415610786576040517f08c379a000000000000000000000000000000000000000000000000000000000815260040161077d906118f1565b60405180910390fd5b80915050919050565b60008073ffffffffffffffffffffffffffffffffffffffff168273ffffffffffffffffffffffffffffffffffffffff161415610800576040517f08c379a00000000000000000000000000000000000000000000000000000000081526004016107f79061195d565b60405180910390fd5b600460008373ffffffffffffffffffffffffffffffffffffffff1673ffffffffffffffffffffffffffffffffffffffff168152602001908152602001600020549050919050565b600a818154811061085757600080fd5b90600052602060002001600091509050805461087290611648565b80601f016020809104026020016040519081016040528092919081815260200182805461089e90611648565b80156108eb5780601f106108c0576101008083540402835291602001916108eb565b820191906000526020600020905b8154815290600101906020018083116108ce57829003601f168201915b505050505081565b60606001805461090290611648565b80601f016020809104026020016040519081016040528092919081815260200182805461092e90611648565b801561097b5780601f106109505761010080835404028352916020019161097b565b820191906000526020600020905b81548152906001019060200180831161095e57829003601f168201915b5050505050905090565b600a819080600181540180825580915050600190039060005260206000200160009091909190915090805190602001906109c0929190611099565b5060006001600a805490506109d591906119ac565b9050600b826040516109e79190611a1c565b908152602001604051809103902060009054906101000a900460ff1615610a43576040517f08c379a0000000000000000000000000000000000000000000000000000000008152600401610a3a90611aa5565b60405180910390fd5b610a4d3382610d3e565b6001600b83604051610a5f9190611a1c565b908152602001604051809103902060006101000a81548160ff0219169083151502179055505050565b600073ffffffffffffffffffffffffffffffffffffffff168373ffffffffffffffffffffffffffffffffffffffff161415610af8576040517f08c379a0000000000000000000000000000000000000000000000000000000008152600401610aef90611b11565b60405180910390fd5b600073ffffffffffffffffffffffffffffffffffffffff168273ffffffffffffffffffffffffffffffffffffffff161415610b68576040517f08c379a0000000000000000000000000000000000000000000000000000000008152600401610b5f90611b7d565b60405180910390fd5b8273ffffffffffffffffffffffffffffffffffffffff16610b88826106dd565b73ffffffffffffffffffffffffffffffffffffffff1614610bde576040517f08c379a0000000000000000000000000000000000000000000000000000000008152600401610bd590611c0f565b60405180910390fd5b816003600083815260200190815260200160002060006101000a81548173ffffffffffffffffffffffffffffffffffffffff021916908373ffffffffffffffffffffffffffffffffffffffff1602179055506001600460008573ffffffffffffffffffffffffffffffffffffffff1673ffffffffffffffffffffffffffffffffffffffff1681526020019081526020016000206000828254610c8091906119ac565b925050819055506001600460008473ffffffffffffffffffffffffffffffffffffffff1673ffffffffffffffffffffffffffffffffffffffff1681526020019081526020016000206000828254610cd79190611c2f565b92505081905550808273ffffffffffffffffffffffffffffffffffffffff168473ffffffffffffffffffffffffffffffffffffffff167fddf252ad1be2c89b69c2b068fc378daa952ba7f163c4a11628f55a4df523b3ef60405160405180910390a4505050565b610d488282610d5f565b610d528282610f20565b610d5b81610fe4565b5050565b600073ffffffffffffffffffffffffffffffffffffffff168273ffffffffffffffffffffffffffffffffffffffff161415610dcf576040517f08c379a0000000000000000000000000000000000000000000000000000000008152600401610dc690611cf7565b60405180910390fd5b610dd88161102d565b610e17576040517f08c379a0000000000000000000000000000000000000000000000000000000008152600401610e0e90611d63565b60405180910390fd5b816003600083815260200190815260200160002060006101000a81548173ffffffffffffffffffffffffffffffffffffffff021916908373ffffffffffffffffffffffffffffffffffffffff1602179055506001600460008473ffffffffffffffffffffffffffffffffffffffff1673ffffffffffffffffffffffffffffffffffffffff1681526020019081526020016000206000828254610eb99190611c2f565b92505081905550808273ffffffffffffffffffffffffffffffffffffffff16600073ffffffffffffffffffffffffffffffffffffffff167fddf252ad1be2c89b69c2b068fc378daa952ba7f163c4a11628f55a4df523b3ef60405160405180910390a45050565b600860008373ffffffffffffffffffffffffffffffffffffffff1673ffffffffffffffffffffffffffffffffffffffff168152602001908152602001600020805490506009600083815260200190815260200160002081905550600860008373ffffffffffffffffffffffffffffffffffffffff1673ffffffffffffffffffffffffffffffffffffffff1681526020019081526020016000208190806001815401808255809150506001900390600052602060002001600090919091909150555050565b6006805490506007600083815260200190815260200160002081905550600681908060018154018082558091505060019003906000526020600020016000909190919091505550565b60008073ffffffffffffffffffffffffffffffffffffffff166003600084815260200190815260200160002060009054906101000a900473ffffffffffffffffffffffffffffffffffffffff1673ffffffffffffffffffffffffffffffffffffffff1614159050919050565b8280546110a590611648565b90600052602060002090601f0160209004810192826110c7576000855561110e565b82601f106110e057805160ff191683800117855561110e565b8280016001018555821561110e579182015b8281111561110d5782518255916020019190600101906110f2565b5b50905061111b919061111f565b5090565b5b80821115611138576000816000905550600101611120565b5090565b6000604051905090565b600080fd5b600080fd5b60007fffffffff0000000000000000000000000000000000000000000000000000000082169050919050565b61118581611150565b811461119057600080fd5b50565b6000813590506111a28161117c565b92915050565b6000602082840312156111be576111bd611146565b5b60006111cc84828501611193565b91505092915050565b60008115159050919050565b6111ea816111d5565b82525050565b600060208201905061120560008301846111e1565b92915050565b600081519050919050565b600082825260208201905092915050565b60005b8381101561124557808201518184015260208101905061122a565b83811115611254576000848401525b50505050565b6000601f19601f8301169050919050565b60006112768261120b565b6112808185611216565b9350611290818560208601611227565b6112998161125a565b840191505092915050565b600060208201905081810360008301526112be818461126b565b905092915050565b600073ffffffffffffffffffffffffffffffffffffffff82169050919050565b60006112f1826112c6565b9050919050565b611301816112e6565b811461130c57600080fd5b50565b60008135905061131e816112f8565b92915050565b6000819050919050565b61133781611324565b811461134257600080fd5b50565b6000813590506113548161132e565b92915050565b6000806040838503121561137157611370611146565b5b600061137f8582860161130f565b925050602061139085828601611345565b9150509250929050565b6113a381611324565b82525050565b60006020820190506113be600083018461139a565b92915050565b6000806000606084860312156113dd576113dc611146565b5b60006113eb8682870161130f565b93505060206113fc8682870161130f565b925050604061140d86828701611345565b9150509250925092565b60006020828403121561142d5761142c611146565b5b600061143b84828501611345565b91505092915050565b61144d816112e6565b82525050565b60006020820190506114686000830184611444565b92915050565b60006020828403121561148457611483611146565b5b60006114928482850161130f565b91505092915050565b600080fd5b600080fd5b7f4e487b7100000000000000000000000000000000000000000000000000000000600052604160045260246000fd5b6114dd8261125a565b810181811067ffffffffffffffff821117156114fc576114fb6114a5565b5b80604052505050565b600061150f61113c565b905061151b82826114d4565b919050565b600067ffffffffffffffff82111561153b5761153a6114a5565b5b6115448261125a565b9050602081019050919050565b82818337600083830152505050565b600061157361156e84611520565b611505565b90508281526020810184848401111561158f5761158e6114a0565b5b61159a848285611551565b509392505050565b600082601f8301126115b7576115b661149b565b5b81356115c7848260208601611560565b91505092915050565b6000602082840312156115e6576115e5611146565b5b600082013567ffffffffffffffff8111156116045761160361114b565b5b611610848285016115a2565b91505092915050565b7f4e487b7100000000000000000000000000000000000000000000000000000000600052602260045260246000fd5b6000600282049050600182168061166057607f821691505b6020821081141561167457611673611619565b5b50919050565b7f4552433732313a2063616e6e6f74207472616e7366657220746f20796f75727360008201527f656c660000000000000000000000000000000000000000000000000000000000602082015250565b60006116d6602383611216565b91506116e18261167a565b604082019050919050565b60006020820190508181036000830152611705816116c9565b9050919050565b7f4552433732313a205468652063616c6c6572206973206e6f7420746865206f7760008201527f6e65720000000000000000000000000000000000000000000000000000000000602082015250565b6000611768602383611216565b91506117738261170c565b604082019050919050565b600060208201905081810360008301526117978161175b565b9050919050565b7f6f776e657220696e646578206973206f7574206f6620626f756e640000000000600082015250565b60006117d4601b83611216565b91506117df8261179e565b602082019050919050565b60006020820190508181036000830152611803816117c7565b9050919050565b7f4e487b7100000000000000000000000000000000000000000000000000000000600052603260045260246000fd5b7f676c6f62616c20696e646578206973206f7574206f6620626f756e6400000000600082015250565b600061186f601c83611216565b915061187a82611839565b602082019050919050565b6000602082019050818103600083015261189e81611862565b9050919050565b7f4552433732313a20496e76616c696420746f6b656e4964000000000000000000600082015250565b60006118db601783611216565b91506118e6826118a5565b602082019050919050565b6000602082019050818103600083015261190a816118ce565b9050919050565b7f4552433732313a20496e76616c6964206f776e65722061646472657373000000600082015250565b6000611947601d83611216565b915061195282611911565b602082019050919050565b600060208201905081810360008301526119768161193a565b9050919050565b7f4e487b7100000000000000000000000000000000000000000000000000000000600052601160045260246000fd5b60006119b782611324565b91506119c283611324565b9250828210156119d5576119d461197d565b5b828203905092915050565b600081905092915050565b60006119f68261120b565b611a0081856119e0565b9350611a10818560208601611227565b80840191505092915050565b6000611a2882846119eb565b915081905092915050565b7f4572726f72202d204b727970746f4269726420616c726561647920657869737460008201527f7300000000000000000000000000000000000000000000000000000000000000602082015250565b6000611a8f602183611216565b9150611a9a82611a33565b604082019050919050565b60006020820190508181036000830152611abe81611a82565b9050919050565b7f4552433732313a20696e76616c6964206f776e65722061646472657373000000600082015250565b6000611afb601d83611216565b9150611b0682611ac5565b602082019050919050565b60006020820190508181036000830152611b2a81611aee565b9050919050565b7f4552433732313a20696e76616c696420746f2061646472657373000000000000600082015250565b6000611b67601a83611216565b9150611b7282611b31565b602082019050919050565b60006020820190508181036000830152611b9681611b5a565b9050919050565b7f4552433732313a2063616e6e6f74207472616e73666572206120746f6b656e2060008201527f7468617420796f7520646f6e2774206f776e0000000000000000000000000000602082015250565b6000611bf9603283611216565b9150611c0482611b9d565b604082019050919050565b60006020820190508181036000830152611c2881611bec565b9050919050565b6000611c3a82611324565b9150611c4583611324565b9250827fffffffffffffffffffffffffffffffffffffffffffffffffffffffffffffffff03821115611c7a57611c7961197d565b5b828201905092915050565b7f4552433732313a206d696e74696e6720746f20746865207a65726f206164647260008201527f6573730000000000000000000000000000000000000000000000000000000000602082015250565b6000611ce1602383611216565b9150611cec82611c85565b604082019050919050565b60006020820190508181036000830152611d1081611cd4565b9050919050565b7f546f6b656e20616c7265616479206d696e746564000000000000000000000000600082015250565b6000611d4d601483611216565b9150611d5882611d17565b602082019050919050565b60006020820190508181036000830152611d7c81611d40565b905091905056fea2646970667358221220b6ecba604bba65d61e05457a3f81f3b158c0cd9fb4005ae709cd276799a7a2f164736f6c634300080a0033",
  "immutableReferences": {},
  "source": "// SPDX-License-Identifier: MIT\npragma solidity ^0.8.0;\n\nimport \"./ERC721Connector.sol\";\n\ncontract KryptoBirdz is ERC721Connector {\n    string[] public krytoBirds;\n    mapping(string => bool) _kryptoBirdExists;\n\n    constructor() ERC721Connector(\"KryptoBirdz\", \"KBIRD\") {}\n\n    function mint(string memory _kryptoBird) public {\n        krytoBirds.push(_kryptoBird);\n        uint256 _id = krytoBirds.length - 1;\n        require(\n            !_kryptoBirdExists[_kryptoBird],\n            \"Error - KryptoBird already exists\"\n        );\n        _mint(msg.sender, _id);\n        _kryptoBirdExists[_kryptoBird] = true;\n    }\n}\n",
  "sourcePath": "/Users/hakeem/git/udemy/nft/nft-marketplace-starter-kit-main 2/src/contracts/KryptoBirdz.sol",
  "compiler": {
    "name": "solc",
    "version": "0.8.10+commit.fc410830.Emscripten.clang"
  },
  "schemaVersion": "3.4.4",
  "updatedAt": "2022-03-05T02:52:23.551Z",
  "devdoc": {
    "kind": "dev",
    "methods": {
      "balanceOf(address)": {
        "details": "NFTs assigned to the zero address are considered invalid, and this  function throws for queries about the zero address.",
        "params": {
          "_owner": "An address for whom to query the balance"
        },
        "returns": {
          "_0": "The number of NFTs owned by `_owner`, possibly zero"
        }
      },
      "ownerOf(uint256)": {
        "details": "NFTs assigned to zero address are considered invalid, and queries  about them do throw.",
        "params": {
          "_tokenId": "The identifier for an NFT"
        },
        "returns": {
          "_0": "The address of the owner of the NFT"
        }
      },
      "supportsInterface(bytes4)": {
        "details": "Interface identification is specified in ERC-165. This function  uses less than 30,000 gas.",
        "params": {
          "interfaceID": "The interface identifier, as specified in ERC-165"
        },
        "returns": {
          "_0": "`true` if the contract implements `interfaceID` and  `interfaceID` is not 0xffffffff, `false` otherwise"
        }
      },
      "tokenByIndex(uint256)": {
        "details": "Throws if `_index` >= `totalSupply()`.",
        "params": {
          "_index": "A counter less than `totalSupply()`"
        },
        "returns": {
          "_0": "The token identifier for the `_index`th NFT,  (sort order not specified)"
        }
      },
      "tokenOfOwnerByIndex(address,uint256)": {
        "details": "Throws if `_index` >= `balanceOf(_owner)` or if  `_owner` is the zero address, representing invalid NFTs.",
        "params": {
          "_index": "A counter less than `balanceOf(_owner)`",
          "_owner": "An address where we are interested in NFTs owned by them"
        },
        "returns": {
          "_0": "The token identifier for the `_index`th NFT assigned to `_owner`,   (sort order not specified)"
        }
      },
      "totalSupply()": {
        "returns": {
          "_0": "A count of valid NFTs tracked by this contract, where each one of  them has an assigned and queryable owner not equal to the zero address"
        }
      }
    },
    "version": 1
  },
  "userdoc": {
    "kind": "user",
    "methods": {
      "balanceOf(address)": {
        "notice": "Count all NFTs assigned to an owner"
      },
      "name()": {
        "notice": "A descriptive name for a collection of NFTs in this contract"
      },
      "ownerOf(uint256)": {
        "notice": "Find the owner of an NFT"
      },
      "supportsInterface(bytes4)": {
        "notice": "Query if a contract implements an interface"
      },
      "symbol()": {
        "notice": "An abbreviated name for NFTs in this contract"
      },
      "tokenByIndex(uint256)": {
        "notice": "Enumerate valid NFTs"
      },
      "tokenOfOwnerByIndex(address,uint256)": {
        "notice": "Enumerate NFTs assigned to an owner"
      },
      "totalSupply()": {
        "notice": "Count NFTs tracked by this contract"
      }
    },
    "version": 1
  }
}